{
  "_format": "hh3-artifact-1",
  "contractName": "GenArt",
  "sourceName": "contracts/GenArt.sol",
  "abi": [
    {
      "anonymous": false,
      "inputs": [
        {
          "indexed": false,
          "internalType": "uint256",
          "name": "id",
          "type": "uint256"
        },
        {
          "indexed": false,
          "internalType": "string",
          "name": "uri",
          "type": "string"
        },
        {
          "indexed": false,
          "internalType": "address",
          "name": "seller",
          "type": "address"
        },
        {
          "indexed": false,
          "internalType": "uint256",
          "name": "price",
          "type": "uint256"
        }
      ],
      "name": "ArtListed",
      "type": "event"
    },
    {
      "anonymous": false,
      "inputs": [
        {
          "indexed": false,
          "internalType": "uint256",
          "name": "id",
          "type": "uint256"
        },
        {
          "indexed": false,
          "internalType": "address",
          "name": "buyer",
          "type": "address"
        },
        {
          "indexed": false,
          "internalType": "uint256",
          "name": "price",
          "type": "uint256"
        }
      ],
      "name": "ArtSold",
      "type": "event"
    },
    {
      "inputs": [
        {
          "internalType": "uint256",
          "name": "_id",
          "type": "uint256"
        }
      ],
      "name": "buyArt",
      "outputs": [],
      "stateMutability": "payable",
      "type": "function"
    },
    {
      "inputs": [],
      "name": "itemCounter",
      "outputs": [
        {
          "internalType": "uint256",
          "name": "",
          "type": "uint256"
        }
      ],
      "stateMutability": "view",
      "type": "function"
    },
    {
      "inputs": [
        {
          "internalType": "uint256",
          "name": "",
          "type": "uint256"
        }
      ],
      "name": "items",
      "outputs": [
        {
          "internalType": "uint256",
          "name": "id",
          "type": "uint256"
        },
        {
          "internalType": "string",
          "name": "metadataURI",
          "type": "string"
        },
        {
          "internalType": "address payable",
          "name": "seller",
          "type": "address"
        },
        {
          "internalType": "address",
          "name": "owner",
          "type": "address"
        },
        {
          "internalType": "uint256",
          "name": "price",
          "type": "uint256"
        },
        {
          "internalType": "bool",
          "name": "isSold",
          "type": "bool"
        }
      ],
      "stateMutability": "view",
      "type": "function"
    },
    {
      "inputs": [
        {
          "internalType": "string",
          "name": "_uri",
          "type": "string"
        },
        {
          "internalType": "uint256",
          "name": "_price",
          "type": "uint256"
        }
      ],
      "name": "listArt",
      "outputs": [],
      "stateMutability": "nonpayable",
      "type": "function"
    },
    {
      "inputs": [],
      "name": "name",
      "outputs": [
        {
          "internalType": "string",
          "name": "",
          "type": "string"
        }
      ],
      "stateMutability": "view",
      "type": "function"
    }
  ],
  "bytecode": "0x60806040526040518060400160405280601281526020017f47656e417274204d61726b6574706c61636500000000000000000000000000008152505f9081610047919061029a565b505f600155348015610057575f5ffd5b50610369565b5f81519050919050565b7f4e487b71000000000000000000000000000000000000000000000000000000005f52604160045260245ffd5b7f4e487b71000000000000000000000000000000000000000000000000000000005f52602260045260245ffd5b5f60028204905060018216806100d857607f821691505b6020821081036100eb576100ea610094565b5b50919050565b5f819050815f5260205f209050919050565b5f6020601f8301049050919050565b5f82821b905092915050565b5f6008830261014d7fffffffffffffffffffffffffffffffffffffffffffffffffffffffffffffffff82610112565b6101578683610112565b95508019841693508086168417925050509392505050565b5f819050919050565b5f819050919050565b5f61019b6101966101918461016f565b610178565b61016f565b9050919050565b5f819050919050565b6101b483610181565b6101c86101c0826101a2565b84845461011e565b825550505050565b5f5f905090565b6101df6101d0565b6101ea8184846101ab565b505050565b5b8181101561020d576102025f826101d7565b6001810190506101f0565b5050565b601f82111561025257610223816100f1565b61022c84610103565b8101602085101561023b578190505b61024f61024785610103565b8301826101ef565b50505b505050565b5f82821c905092915050565b5f6102725f1984600802610257565b1980831691505092915050565b5f61028a8383610263565b9150826002028217905092915050565b6102a38261005d565b67ffffffffffffffff8111156102bc576102bb610067565b5b6102c682546100c1565b6102d1828285610211565b5f60209050601f831160018114610302575f84156102f0578287015190505b6102fa858261027f565b865550610361565b601f198416610310866100f1565b5f5b8281101561033757848901518255600182019150602085019450602081019050610312565b868310156103545784890151610350601f891682610263565b8355505b6001600288020188555050505b505050505050565b610f0e806103765f395ff3fe608060405260043610610049575f3560e01c806306fdde031461004d5780636d6d00ed1461007757806389c6545a146100a1578063bfb231d2146100c9578063fc7a900b1461010a575b5f5ffd5b348015610058575f5ffd5b50610061610126565b60405161006e91906106c5565b60405180910390f35b348015610082575f5ffd5b5061008b6101b1565b60405161009891906106fd565b60405180910390f35b3480156100ac575f5ffd5b506100c760048036038101906100c2919061087d565b6101b7565b005b3480156100d4575f5ffd5b506100ef60048036038101906100ea91906108d7565b610399565b6040516101019695949392919061097b565b60405180910390f35b610124600480360381019061011f91906108d7565b6104a1565b005b5f805461013290610a0e565b80601f016020809104026020016040519081016040528092919081815260200182805461015e90610a0e565b80156101a95780601f10610180576101008083540402835291602001916101a9565b820191905f5260205f20905b81548152906001019060200180831161018c57829003601f168201915b505050505081565b60015481565b5f81116101f9576040517f08c379a00000000000000000000000000000000000000000000000000000000081526004016101f090610a88565b60405180910390fd5b60015f81548092919061020b90610ad3565b91905055506040518060c0016040528060015481526020018381526020013373ffffffffffffffffffffffffffffffffffffffff1681526020013373ffffffffffffffffffffffffffffffffffffffff1681526020018281526020015f151581525060025f60015481526020019081526020015f205f820151815f0155602082015181600101908161029d9190610cba565b506040820151816002015f6101000a81548173ffffffffffffffffffffffffffffffffffffffff021916908373ffffffffffffffffffffffffffffffffffffffff1602179055506060820151816003015f6101000a81548173ffffffffffffffffffffffffffffffffffffffff021916908373ffffffffffffffffffffffffffffffffffffffff1602179055506080820151816004015560a0820151816005015f6101000a81548160ff0219169083151502179055509050507fae834ccf58ada1e870dc2be6a3fc65fa5231b0ce7ebf9619de38f089c8222c6960015483338460405161038d9493929190610d89565b60405180910390a15050565b6002602052805f5260405f205f91509050805f0154908060010180546103be90610a0e565b80601f01602080910402602001604051908101604052809291908181526020018280546103ea90610a0e565b80156104355780601f1061040c57610100808354040283529160200191610435565b820191905f5260205f20905b81548152906001019060200180831161041857829003601f168201915b505050505090806002015f9054906101000a900473ffffffffffffffffffffffffffffffffffffffff1690806003015f9054906101000a900473ffffffffffffffffffffffffffffffffffffffff1690806004015490806005015f9054906101000a900460ff16905086565b5f60025f8381526020019081526020015f20905080600401543410156104fc576040517f08c379a00000000000000000000000000000000000000000000000000000000081526004016104f390610e1d565b60405180910390fd5b806005015f9054906101000a900460ff161561054d576040517f08c379a000000000000000000000000000000000000000000000000000000000815260040161054490610e85565b60405180910390fd5b6001816005015f6101000a81548160ff021916908315150217905550806002015f9054906101000a900473ffffffffffffffffffffffffffffffffffffffff1673ffffffffffffffffffffffffffffffffffffffff166108fc3490811502906040515f60405180830381858888f193505050501580156105cf573d5f5f3e3d5ffd5b5033816003015f6101000a81548173ffffffffffffffffffffffffffffffffffffffff021916908373ffffffffffffffffffffffffffffffffffffffff1602179055507f27b92c6c7afad1170d67a0beaa899639c14901a7fef1edd03cfb73dd43a39b7b8233836004015460405161064993929190610ea3565b60405180910390a15050565b5f81519050919050565b5f82825260208201905092915050565b8281835e5f83830152505050565b5f601f19601f8301169050919050565b5f61069782610655565b6106a1818561065f565b93506106b181856020860161066f565b6106ba8161067d565b840191505092915050565b5f6020820190508181035f8301526106dd818461068d565b905092915050565b5f819050919050565b6106f7816106e5565b82525050565b5f6020820190506107105f8301846106ee565b92915050565b5f604051905090565b5f5ffd5b5f5ffd5b5f5ffd5b5f5ffd5b7f4e487b71000000000000000000000000000000000000000000000000000000005f52604160045260245ffd5b6107658261067d565b810181811067ffffffffffffffff821117156107845761078361072f565b5b80604052505050565b5f610796610716565b90506107a2828261075c565b919050565b5f67ffffffffffffffff8211156107c1576107c061072f565b5b6107ca8261067d565b9050602081019050919050565b828183375f83830152505050565b5f6107f76107f2846107a7565b61078d565b9050828152602081018484840111156108135761081261072b565b5b61081e8482856107d7565b509392505050565b5f82601f83011261083a57610839610727565b5b813561084a8482602086016107e5565b91505092915050565b61085c816106e5565b8114610866575f5ffd5b50565b5f8135905061087781610853565b92915050565b5f5f604083850312156108935761089261071f565b5b5f83013567ffffffffffffffff8111156108b0576108af610723565b5b6108bc85828601610826565b92505060206108cd85828601610869565b9150509250929050565b5f602082840312156108ec576108eb61071f565b5b5f6108f984828501610869565b91505092915050565b5f73ffffffffffffffffffffffffffffffffffffffff82169050919050565b5f61092b82610902565b9050919050565b61093b81610921565b82525050565b5f61094b82610902565b9050919050565b61095b81610941565b82525050565b5f8115159050919050565b61097581610961565b82525050565b5f60c08201905061098e5f8301896106ee565b81810360208301526109a0818861068d565b90506109af6040830187610932565b6109bc6060830186610952565b6109c960808301856106ee565b6109d660a083018461096c565b979650505050505050565b7f4e487b71000000000000000000000000000000000000000000000000000000005f52602260045260245ffd5b5f6002820490506001821680610a2557607f821691505b602082108103610a3857610a376109e1565b5b50919050565b7f5072696365206d75737420626520706f736974697665000000000000000000005f82015250565b5f610a7260168361065f565b9150610a7d82610a3e565b602082019050919050565b5f6020820190508181035f830152610a9f81610a66565b9050919050565b7f4e487b71000000000000000000000000000000000000000000000000000000005f52601160045260245ffd5b5f610add826106e5565b91507fffffffffffffffffffffffffffffffffffffffffffffffffffffffffffffffff8203610b0f57610b0e610aa6565b5b600182019050919050565b5f819050815f5260205f209050919050565b5f6020601f8301049050919050565b5f82821b905092915050565b5f60088302610b767fffffffffffffffffffffffffffffffffffffffffffffffffffffffffffffffff82610b3b565b610b808683610b3b565b95508019841693508086168417925050509392505050565b5f819050919050565b5f610bbb610bb6610bb1846106e5565b610b98565b6106e5565b9050919050565b5f819050919050565b610bd483610ba1565b610be8610be082610bc2565b848454610b47565b825550505050565b5f5f905090565b610bff610bf0565b610c0a818484610bcb565b505050565b5b81811015610c2d57610c225f82610bf7565b600181019050610c10565b5050565b601f821115610c7257610c4381610b1a565b610c4c84610b2c565b81016020851015610c5b578190505b610c6f610c6785610b2c565b830182610c0f565b50505b505050565b5f82821c905092915050565b5f610c925f1984600802610c77565b1980831691505092915050565b5f610caa8383610c83565b9150826002028217905092915050565b610cc382610655565b67ffffffffffffffff811115610cdc57610cdb61072f565b5b610ce68254610a0e565b610cf1828285610c31565b5f60209050601f831160018114610d22575f8415610d10578287015190505b610d1a8582610c9f565b865550610d81565b601f198416610d3086610b1a565b5f5b82811015610d5757848901518255600182019150602085019450602081019050610d32565b86831015610d745784890151610d70601f891682610c83565b8355505b6001600288020188555050505b505050505050565b5f608082019050610d9c5f8301876106ee565b8181036020830152610dae818661068d565b9050610dbd6040830185610952565b610dca60608301846106ee565b95945050505050565b7f4e6f7420656e6f756768204554480000000000000000000000000000000000005f82015250565b5f610e07600e8361065f565b9150610e1282610dd3565b602082019050919050565b5f6020820190508181035f830152610e3481610dfb565b9050919050565b7f416c726561647920736f6c6400000000000000000000000000000000000000005f82015250565b5f610e6f600c8361065f565b9150610e7a82610e3b565b602082019050919050565b5f6020820190508181035f830152610e9c81610e63565b9050919050565b5f606082019050610eb65f8301866106ee565b610ec36020830185610952565b610ed060408301846106ee565b94935050505056fea2646970667358221220179e5281a4744d5d53e1979e663f1e2914307c8bd468ac3a24f031dda6c4b6e264736f6c634300081c0033",
  "linkReferences": {},
  "deployedLinkReferences": {},
  "immutableReferences": {},
  "inputSourceName": "project/contracts/GenArt.sol",
  "buildInfoId": "solc-0_8_28-6604e402c4e3996a8e8ff7fca59620178fd1282d"
}