{
  "_format": "hh3-artifact-1",
  "contractName": "GenArt",
  "sourceName": "contracts/GenArt.sol",
  "abi": [
    {
      "anonymous": false,
      "inputs": [
        {
          "indexed": false,
          "internalType": "uint256",
          "name": "id",
          "type": "uint256"
        },
        {
          "indexed": false,
          "internalType": "string",
          "name": "uri",
          "type": "string"
        },
        {
          "indexed": false,
          "internalType": "address",
          "name": "seller",
          "type": "address"
        },
        {
          "indexed": false,
          "internalType": "uint256",
          "name": "price",
          "type": "uint256"
        }
      ],
      "name": "ArtListed",
      "type": "event"
    },
    {
      "anonymous": false,
      "inputs": [
        {
          "indexed": false,
          "internalType": "uint256",
          "name": "id",
          "type": "uint256"
        },
        {
          "indexed": false,
          "internalType": "address",
          "name": "buyer",
          "type": "address"
        },
        {
          "indexed": false,
          "internalType": "uint256",
          "name": "price",
          "type": "uint256"
        }
      ],
      "name": "ArtSold",
      "type": "event"
    },
    {
      "inputs": [
        {
          "internalType": "uint256",
          "name": "_id",
          "type": "uint256"
        }
      ],
      "name": "buyArt",
      "outputs": [],
      "stateMutability": "payable",
      "type": "function"
    },
    {
      "inputs": [],
      "name": "itemCounter",
      "outputs": [
        {
          "internalType": "uint256",
          "name": "",
          "type": "uint256"
        }
      ],
      "stateMutability": "view",
      "type": "function"
    },
    {
      "inputs": [
        {
          "internalType": "uint256",
          "name": "",
          "type": "uint256"
        }
      ],
      "name": "items",
      "outputs": [
        {
          "internalType": "uint256",
          "name": "id",
          "type": "uint256"
        },
        {
          "internalType": "string",
          "name": "metadataURI",
          "type": "string"
        },
        {
          "internalType": "address payable",
          "name": "seller",
          "type": "address"
        },
        {
          "internalType": "address",
          "name": "owner",
          "type": "address"
        },
        {
          "internalType": "uint256",
          "name": "price",
          "type": "uint256"
        },
        {
          "internalType": "bool",
          "name": "isSold",
          "type": "bool"
        }
      ],
      "stateMutability": "view",
      "type": "function"
    },
    {
      "inputs": [
        {
          "internalType": "string",
          "name": "_uri",
          "type": "string"
        },
        {
          "internalType": "uint256",
          "name": "_price",
          "type": "uint256"
        }
      ],
      "name": "listArt",
      "outputs": [],
      "stateMutability": "nonpayable",
      "type": "function"
    },
    {
      "inputs": [],
      "name": "name",
      "outputs": [
        {
          "internalType": "string",
          "name": "",
          "type": "string"
        }
      ],
      "stateMutability": "view",
      "type": "function"
    }
  ],
  "bytecode": "0x60c0604052601260809081527147656e417274204d61726b6574706c61636560701b60a0525f9061003090826100de565b505f600155348015610040575f5ffd5b50610198565b634e487b7160e01b5f52604160045260245ffd5b600181811c9082168061006e57607f821691505b60208210810361008c57634e487b7160e01b5f52602260045260245ffd5b50919050565b601f8211156100d957805f5260205f20601f840160051c810160208510156100b75750805b601f840160051c820191505b818110156100d6575f81556001016100c3565b50505b505050565b81516001600160401b038111156100f7576100f7610046565b61010b81610105845461005a565b84610092565b6020601f82116001811461013d575f83156101265750848201515b5f19600385901b1c1916600184901b1784556100d6565b5f84815260208120601f198516915b8281101561016c578785015182556020948501946001909201910161014c565b508482101561018957868401515f19600387901b60f8161c191681555b50505050600190811b01905550565b610823806101a55f395ff3fe608060405260043610610049575f3560e01c806306fdde031461004d5780636d6d00ed1461007757806389c6545a1461009a578063bfb231d2146100bb578063fc7a900b146100ec575b5f5ffd5b348015610058575f5ffd5b506100616100ff565b60405161006e9190610515565b60405180910390f35b348015610082575f5ffd5b5061008c60015481565b60405190815260200161006e565b3480156100a5575f5ffd5b506100b96100b4366004610542565b61018a565b005b3480156100c6575f5ffd5b506100da6100d53660046105f7565b6102e5565b60405161006e9695949392919061060e565b6100b96100fa3660046105f7565b6103b1565b5f805461010b90610656565b80601f016020809104026020016040519081016040528092919081815260200182805461013790610656565b80156101825780601f1061015957610100808354040283529160200191610182565b820191905f5260205f20905b81548152906001019060200180831161016557829003601f168201915b505050505081565b5f81116101d75760405162461bcd60e51b81526020600482015260166024820152755072696365206d75737420626520706f73697469766560501b60448201526064015b60405180910390fd5b60018054905f6101e68361068e565b90915550506040805160c081018252600180548083526020808401878152338587018190526060860152608085018790525f60a0860181905292835260029091529390208251815592519192919082019061024190826106fe565b506040828101516002830180546001600160a01b039283166001600160a01b03199182161790915560608501516003850180549190931691161790556080830151600483015560a0909201516005909101805491151560ff1990921691909117905560015490517fae834ccf58ada1e870dc2be6a3fc65fa5231b0ce7ebf9619de38f089c8222c69916102d9918590339086906107b9565b60405180910390a15050565b60026020525f90815260409020805460018201805491929161030690610656565b80601f016020809104026020016040519081016040528092919081815260200182805461033290610656565b801561037d5780601f106103545761010080835404028352916020019161037d565b820191905f5260205f20905b81548152906001019060200180831161036057829003601f168201915b5050505060028301546003840154600485015460059095015493946001600160a01b03928316949290911692509060ff1686565b5f81815260026020526040902060048101543410156104035760405162461bcd60e51b815260206004820152600e60248201526d09cdee840cadcdeeaced0408aa8960931b60448201526064016101ce565b600581015460ff16156104475760405162461bcd60e51b815260206004820152600c60248201526b105b1c9958591e481cdbdb1960a21b60448201526064016101ce565b60058101805460ff1916600117905560028101546040516001600160a01b03909116903480156108fc02915f818181858888f1935050505015801561048e573d5f5f3e3d5ffd5b506003810180546001600160a01b0319163390811790915560048201546040805185815260208101939093528201527f27b92c6c7afad1170d67a0beaa899639c14901a7fef1edd03cfb73dd43a39b7b906060016102d9565b5f81518084528060208401602086015e5f602082860101526020601f19601f83011685010191505092915050565b602081525f61052760208301846104e7565b9392505050565b634e487b7160e01b5f52604160045260245ffd5b5f5f60408385031215610553575f5ffd5b823567ffffffffffffffff811115610569575f5ffd5b8301601f81018513610579575f5ffd5b803567ffffffffffffffff8111156105935761059361052e565b604051601f8201601f19908116603f0116810167ffffffffffffffff811182821017156105c2576105c261052e565b6040528181528282016020018710156105d9575f5ffd5b816020840160208301375f6020928201830152969401359450505050565b5f60208284031215610607575f5ffd5b5035919050565b86815260c060208201525f61062660c08301886104e7565b6001600160a01b0396871660408401529490951660608201526080810192909252151560a0909101529392505050565b600181811c9082168061066a57607f821691505b60208210810361068857634e487b7160e01b5f52602260045260245ffd5b50919050565b5f600182016106ab57634e487b7160e01b5f52601160045260245ffd5b5060010190565b601f8211156106f957805f5260205f20601f840160051c810160208510156106d75750805b601f840160051c820191505b818110156106f6575f81556001016106e3565b50505b505050565b815167ffffffffffffffff8111156107185761071861052e565b61072c816107268454610656565b846106b2565b6020601f82116001811461075e575f83156107475750848201515b5f19600385901b1c1916600184901b1784556106f6565b5f84815260208120601f198516915b8281101561078d578785015182556020948501946001909201910161076d565b50848210156107aa57868401515f19600387901b60f8161c191681555b50505050600190811b01905550565b848152608060208201525f6107d160808301866104e7565b6001600160a01b0394909416604083015250606001529291505056fea2646970667358221220049330404a9d3602751c7cee6ffdc55037d160c061db3b74315717d41dd6ce6764736f6c634300081c0033",
  "linkReferences": {},
  "deployedLinkReferences": {},
  "immutableReferences": {},
  "inputSourceName": "project/contracts/GenArt.sol",
  "buildInfoId": "solc-0_8_28-3bb6ae6f584fd7574fc659574269ff6537e3618e"
}